{
  "contractName": "SupplyChain",
  "abi": [
    {
      "inputs": [],
      "stateMutability": "payable",
      "type": "constructor",
      "payable": true
    },
    {
      "anonymous": false,
      "inputs": [
        {
          "indexed": true,
          "internalType": "address",
          "name": "account",
          "type": "address"
        }
      ],
      "name": "ConsumerAdded",
      "type": "event"
    },
    {
      "anonymous": false,
      "inputs": [
        {
          "indexed": true,
          "internalType": "address",
          "name": "account",
          "type": "address"
        }
      ],
      "name": "ConsumerRemoved",
      "type": "event"
    },
    {
      "anonymous": false,
      "inputs": [
        {
          "indexed": true,
          "internalType": "address",
          "name": "account",
          "type": "address"
        }
      ],
      "name": "DistributorAdded",
      "type": "event"
    },
    {
      "anonymous": false,
      "inputs": [
        {
          "indexed": true,
          "internalType": "address",
          "name": "account",
          "type": "address"
        }
      ],
      "name": "DistributorRemoved",
      "type": "event"
    },
    {
      "anonymous": false,
      "inputs": [
        {
          "indexed": true,
          "internalType": "address",
          "name": "account",
          "type": "address"
        }
      ],
      "name": "FarmerAdded",
      "type": "event"
    },
    {
      "anonymous": false,
      "inputs": [
        {
          "indexed": true,
          "internalType": "address",
          "name": "account",
          "type": "address"
        }
      ],
      "name": "FarmerRemoved",
      "type": "event"
    },
    {
      "anonymous": false,
      "inputs": [
        {
          "indexed": false,
          "internalType": "uint256",
          "name": "upc",
          "type": "uint256"
        }
      ],
      "name": "ForSale",
      "type": "event"
    },
    {
      "anonymous": false,
      "inputs": [
        {
          "indexed": false,
          "internalType": "uint256",
          "name": "upc",
          "type": "uint256"
        }
      ],
      "name": "Harvested",
      "type": "event"
    },
    {
      "anonymous": false,
      "inputs": [
        {
          "indexed": false,
          "internalType": "uint256",
          "name": "upc",
          "type": "uint256"
        }
      ],
      "name": "Packed",
      "type": "event"
    },
    {
      "anonymous": false,
      "inputs": [
        {
          "indexed": false,
          "internalType": "uint256",
          "name": "upc",
          "type": "uint256"
        }
      ],
      "name": "Processed",
      "type": "event"
    },
    {
      "anonymous": false,
      "inputs": [
        {
          "indexed": false,
          "internalType": "uint256",
          "name": "upc",
          "type": "uint256"
        }
      ],
      "name": "Purchased",
      "type": "event"
    },
    {
      "anonymous": false,
      "inputs": [
        {
          "indexed": false,
          "internalType": "uint256",
          "name": "upc",
          "type": "uint256"
        }
      ],
      "name": "Received",
      "type": "event"
    },
    {
      "anonymous": false,
      "inputs": [
        {
          "indexed": true,
          "internalType": "address",
          "name": "retailer",
          "type": "address"
        }
      ],
      "name": "RetailerAdded",
      "type": "event"
    },
    {
      "anonymous": false,
      "inputs": [
        {
          "indexed": true,
          "internalType": "address",
          "name": "retailer",
          "type": "address"
        }
      ],
      "name": "RetailerRemoved",
      "type": "event"
    },
    {
      "anonymous": false,
      "inputs": [
        {
          "indexed": false,
          "internalType": "uint256",
          "name": "upc",
          "type": "uint256"
        }
      ],
      "name": "Shipped",
      "type": "event"
    },
    {
      "anonymous": false,
      "inputs": [
        {
          "indexed": false,
          "internalType": "uint256",
          "name": "upc",
          "type": "uint256"
        }
      ],
      "name": "Sold",
      "type": "event"
    },
    {
      "inputs": [
        {
          "internalType": "address",
          "name": "account",
          "type": "address"
        }
      ],
      "name": "addConsumer",
      "outputs": [],
      "stateMutability": "nonpayable",
      "type": "function"
    },
    {
      "inputs": [
        {
          "internalType": "address",
          "name": "account",
          "type": "address"
        }
      ],
      "name": "addDistributor",
      "outputs": [],
      "stateMutability": "nonpayable",
      "type": "function"
    },
    {
      "inputs": [
        {
          "internalType": "address",
          "name": "account",
          "type": "address"
        }
      ],
      "name": "addFarmer",
      "outputs": [],
      "stateMutability": "nonpayable",
      "type": "function"
    },
    {
      "inputs": [
        {
          "internalType": "address",
          "name": "account",
          "type": "address"
        }
      ],
      "name": "addRetailer",
      "outputs": [],
      "stateMutability": "nonpayable",
      "type": "function"
    },
    {
      "inputs": [
        {
          "internalType": "address",
          "name": "account",
          "type": "address"
        }
      ],
      "name": "isConsumer",
      "outputs": [
        {
          "internalType": "bool",
          "name": "",
          "type": "bool"
        }
      ],
      "stateMutability": "view",
      "type": "function",
      "constant": true
    },
    {
      "inputs": [
        {
          "internalType": "address",
          "name": "account",
          "type": "address"
        }
      ],
      "name": "isDistributor",
      "outputs": [
        {
          "internalType": "bool",
          "name": "",
          "type": "bool"
        }
      ],
      "stateMutability": "view",
      "type": "function",
      "constant": true
    },
    {
      "inputs": [
        {
          "internalType": "address",
          "name": "account",
          "type": "address"
        }
      ],
      "name": "isFarmer",
      "outputs": [
        {
          "internalType": "bool",
          "name": "",
          "type": "bool"
        }
      ],
      "stateMutability": "view",
      "type": "function",
      "constant": true
    },
    {
      "inputs": [
        {
          "internalType": "address",
          "name": "account",
          "type": "address"
        }
      ],
      "name": "isRetailer",
      "outputs": [
        {
          "internalType": "bool",
          "name": "",
          "type": "bool"
        }
      ],
      "stateMutability": "view",
      "type": "function",
      "constant": true
    },
    {
      "inputs": [],
      "name": "renounceConsumer",
      "outputs": [],
      "stateMutability": "nonpayable",
      "type": "function"
    },
    {
      "inputs": [],
      "name": "renounceDistributor",
      "outputs": [],
      "stateMutability": "nonpayable",
      "type": "function"
    },
    {
      "inputs": [],
      "name": "renounceFarmer",
      "outputs": [],
      "stateMutability": "nonpayable",
      "type": "function"
    },
    {
      "inputs": [],
      "name": "renounceRetailer",
      "outputs": [],
      "stateMutability": "nonpayable",
      "type": "function"
    },
    {
      "inputs": [
        {
          "internalType": "uint256",
          "name": "_upc",
          "type": "uint256"
        },
        {
          "internalType": "address payable",
          "name": "_originFarmerID",
          "type": "address"
        },
        {
          "internalType": "string",
          "name": "_originFarmName",
          "type": "string"
        },
        {
          "internalType": "string",
          "name": "_originFarmInformation",
          "type": "string"
        },
        {
          "internalType": "string",
          "name": "_originFarmLatitude",
          "type": "string"
        },
        {
          "internalType": "string",
          "name": "_originFarmLongitude",
          "type": "string"
        },
        {
          "internalType": "string",
          "name": "_productNotes",
          "type": "string"
        }
      ],
      "name": "harvestItem",
      "outputs": [],
      "stateMutability": "nonpayable",
      "type": "function"
    },
    {
      "inputs": [
        {
          "internalType": "uint256",
          "name": "_upc",
          "type": "uint256"
        }
      ],
      "name": "processItem",
      "outputs": [],
      "stateMutability": "nonpayable",
      "type": "function"
    },
    {
      "inputs": [
        {
          "internalType": "uint256",
          "name": "_upc",
          "type": "uint256"
        }
      ],
      "name": "packItem",
      "outputs": [],
      "stateMutability": "nonpayable",
      "type": "function"
    },
    {
      "inputs": [
        {
          "internalType": "uint256",
          "name": "_upc",
          "type": "uint256"
        },
        {
          "internalType": "uint256",
          "name": "_price",
          "type": "uint256"
        }
      ],
      "name": "sellItem",
      "outputs": [],
      "stateMutability": "nonpayable",
      "type": "function"
    },
    {
      "inputs": [
        {
          "internalType": "uint256",
          "name": "_upc",
          "type": "uint256"
        }
      ],
      "name": "buyItem",
      "outputs": [],
      "stateMutability": "payable",
      "type": "function",
      "payable": true
    },
    {
      "inputs": [
        {
          "internalType": "uint256",
          "name": "_upc",
          "type": "uint256"
        }
      ],
      "name": "shipItem",
      "outputs": [],
      "stateMutability": "nonpayable",
      "type": "function"
    },
    {
      "inputs": [
        {
          "internalType": "uint256",
          "name": "_upc",
          "type": "uint256"
        }
      ],
      "name": "receiveItem",
      "outputs": [],
      "stateMutability": "nonpayable",
      "type": "function"
    },
    {
      "inputs": [
        {
          "internalType": "uint256",
          "name": "_upc",
          "type": "uint256"
        }
      ],
      "name": "purchaseItem",
      "outputs": [],
      "stateMutability": "nonpayable",
      "type": "function"
    },
    {
      "inputs": [
        {
          "internalType": "uint256",
          "name": "_upc",
          "type": "uint256"
        }
      ],
      "name": "fetchItemBufferOne",
      "outputs": [
        {
          "internalType": "uint256",
          "name": "itemSKU",
          "type": "uint256"
        },
        {
          "internalType": "uint256",
          "name": "itemUPC",
          "type": "uint256"
        },
        {
          "internalType": "address payable",
          "name": "ownerID",
          "type": "address"
        },
        {
          "internalType": "address payable",
          "name": "originFarmerID",
          "type": "address"
        },
        {
          "internalType": "string",
          "name": "originFarmName",
          "type": "string"
        },
        {
          "internalType": "string",
          "name": "originFarmInformation",
          "type": "string"
        },
        {
          "internalType": "string",
          "name": "originFarmLatitude",
          "type": "string"
        },
        {
          "internalType": "string",
          "name": "originFarmLongitude",
          "type": "string"
        }
      ],
      "stateMutability": "view",
      "type": "function",
      "constant": true
    },
    {
      "inputs": [
        {
          "internalType": "uint256",
          "name": "_upc",
          "type": "uint256"
        }
      ],
      "name": "fetchItemBufferTwo",
      "outputs": [
        {
          "internalType": "uint256",
          "name": "itemSKU",
          "type": "uint256"
        },
        {
          "internalType": "uint256",
          "name": "itemUPC",
          "type": "uint256"
        },
        {
          "internalType": "uint256",
          "name": "productID",
          "type": "uint256"
        },
        {
          "internalType": "string",
          "name": "productNotes",
          "type": "string"
        },
        {
          "internalType": "uint256",
          "name": "productPrice",
          "type": "uint256"
        },
        {
          "internalType": "uint256",
          "name": "itemState",
          "type": "uint256"
        },
        {
          "internalType": "address payable",
          "name": "distributorID",
          "type": "address"
        },
        {
          "internalType": "address payable",
          "name": "retailerID",
          "type": "address"
        },
        {
          "internalType": "address payable",
          "name": "consumerID",
          "type": "address"
        }
      ],
      "stateMutability": "view",
      "type": "function",
      "constant": true
    }
  ],
  "bytecode": "0x608060405262000015336200009f60201b60201c565b62000026336200010060201b60201c565b62000037336200016160201b60201c565b6200004833620001c260201b60201c565b33600460006101000a81548173ffffffffffffffffffffffffffffffffffffffff021916908373ffffffffffffffffffffffffffffffffffffffff160217905550600160068190555060016005819055506200036c565b620000ba8160006200022360201b620027881790919060201c565b8073ffffffffffffffffffffffffffffffffffffffff167f2e0ded4123377a3c2bc9a26f1717655a129e2f20752924d42e730ec89c83dbd060405160405180910390a250565b6200011b8160016200022360201b620027881790919060201c565b8073ffffffffffffffffffffffffffffffffffffffff167fddbf200aa634dc3fb81cfd68583dd1040d1c751d335e1d86b631bde3e977fea860405160405180910390a250565b6200017c8160026200022360201b620027881790919060201c565b8073ffffffffffffffffffffffffffffffffffffffff167f28b26e7a3d20aedbc5f8f2ebf7da671c0491723a2b78f47a097b0e46dee0714260405160405180910390a250565b620001dd8160036200022360201b620027881790919060201c565b8073ffffffffffffffffffffffffffffffffffffffff167f71ae26cad02663e3d92efd6ec56031a80d74a20c0ab4183faa8bf262261c9baa60405160405180910390a250565b600073ffffffffffffffffffffffffffffffffffffffff168173ffffffffffffffffffffffffffffffffffffffff1614156200025e57600080fd5b620002708282620002d960201b60201c565b156200027b57600080fd5b60018260000160008373ffffffffffffffffffffffffffffffffffffffff1673ffffffffffffffffffffffffffffffffffffffff16815260200190815260200160002060006101000a81548160ff0219169083151502179055505050565b60008073ffffffffffffffffffffffffffffffffffffffff168273ffffffffffffffffffffffffffffffffffffffff1614156200031557600080fd5b8260000160008373ffffffffffffffffffffffffffffffffffffffff1673ffffffffffffffffffffffffffffffffffffffff16815260200190815260200160002060009054906101000a900460ff16905092915050565b612e03806200037c6000396000f3fe6080604052600436106101355760003560e01c8063834ff739116100ab578063bdd8a6a81161006f578063bdd8a6a814610888578063d38ea5bf14610bd6578063db0e6a2f14610c11578063e7fb74c714610c28578063f30fc48014610c56578063f61c899a14610c9157610135565b8063834ff739146106c75780638ec4f5051461072e5780638f0c86fa1461077f578063a26be999146107e6578063b94290691461082157610135565b8063644241db116100fd578063644241db1461028957806366225ff9146102a05780637250e224146103ce57806377c459131461041f57806380c3f96d1461065f57806380fc0ce4146106b057610135565b8063112940f91461013a5780632d9235611461018b57806349dae766146101d05780635da09b881461020b57806361e6982d14610272575b600080fd5b34801561014657600080fd5b506101896004803603602081101561015d57600080fd5b81019080803573ffffffffffffffffffffffffffffffffffffffff169060200190929190505050610ccc565b005b34801561019757600080fd5b506101ce600480360360408110156101ae57600080fd5b810190808035906020019092919080359060200190929190505050610cea565b005b3480156101dc57600080fd5b50610209600480360360208110156101f357600080fd5b8101908080359060200190929190505050610ebc565b005b34801561021757600080fd5b5061025a6004803603602081101561022e57600080fd5b81019080803573ffffffffffffffffffffffffffffffffffffffff169060200190929190505050611070565b60405180821515815260200191505060405180910390f35b34801561027e57600080fd5b5061028761108d565b005b34801561029557600080fd5b5061029e611098565b005b3480156102ac57600080fd5b506102d9600480360360208110156102c357600080fd5b81019080803590602001909291905050506110a3565b604051808a8152602001898152602001888152602001806020018781526020018681526020018573ffffffffffffffffffffffffffffffffffffffff1681526020018473ffffffffffffffffffffffffffffffffffffffff1681526020018373ffffffffffffffffffffffffffffffffffffffff168152602001828103825288818151815260200191508051906020019080838360005b8381101561038b578082015181840152602081019050610370565b50505050905090810190601f1680156103b85780820380516001836020036101000a031916815260200191505b509a505050505050505050505060405180910390f35b3480156103da57600080fd5b5061041d600480360360208110156103f157600080fd5b81019080803573ffffffffffffffffffffffffffffffffffffffff1690602001909291905050506112b0565b005b34801561042b57600080fd5b506104586004803603602081101561044257600080fd5b81019080803590602001909291905050506112ce565b604051808981526020018881526020018773ffffffffffffffffffffffffffffffffffffffff1681526020018673ffffffffffffffffffffffffffffffffffffffff16815260200180602001806020018060200180602001858103855289818151815260200191508051906020019080838360005b838110156104e85780820151818401526020810190506104cd565b50505050905090810190601f1680156105155780820380516001836020036101000a031916815260200191505b50858103845288818151815260200191508051906020019080838360005b8381101561054e578082015181840152602081019050610533565b50505050905090810190601f16801561057b5780820380516001836020036101000a031916815260200191505b50858103835287818151815260200191508051906020019080838360005b838110156105b4578082015181840152602081019050610599565b50505050905090810190601f1680156105e15780820380516001836020036101000a031916815260200191505b50858103825286818151815260200191508051906020019080838360005b8381101561061a5780820151818401526020810190506105ff565b50505050905090810190601f1680156106475780820380516001836020036101000a031916815260200191505b509c5050505050505050505050505060405180910390f35b34801561066b57600080fd5b506106ae6004803603602081101561068257600080fd5b81019080803573ffffffffffffffffffffffffffffffffffffffff16906020019092919050505061164d565b005b3480156106bc57600080fd5b506106c561166b565b005b3480156106d357600080fd5b50610716600480360360208110156106ea57600080fd5b81019080803573ffffffffffffffffffffffffffffffffffffffff169060200190929190505050611676565b60405180821515815260200191505060405180910390f35b34801561073a57600080fd5b5061077d6004803603602081101561075157600080fd5b81019080803573ffffffffffffffffffffffffffffffffffffffff169060200190929190505050611693565b005b34801561078b57600080fd5b506107ce600480360360208110156107a257600080fd5b81019080803573ffffffffffffffffffffffffffffffffffffffff1690602001909291905050506116bc565b60405180821515815260200191505060405180910390f35b3480156107f257600080fd5b5061081f6004803603602081101561080957600080fd5b81019080803590602001909291905050506116d9565b005b34801561082d57600080fd5b506108706004803603602081101561084457600080fd5b81019080803573ffffffffffffffffffffffffffffffffffffffff169060200190929190505050611942565b60405180821515815260200191505060405180910390f35b34801561089457600080fd5b50610bd4600480360360e08110156108ab57600080fd5b8101908080359060200190929190803573ffffffffffffffffffffffffffffffffffffffff169060200190929190803590602001906401000000008111156108f257600080fd5b82018360208201111561090457600080fd5b8035906020019184600183028401116401000000008311171561092657600080fd5b91908080601f016020809104026020016040519081016040528093929190818152602001838380828437600081840152601f19601f8201169050808301925050505050505091929192908035906020019064010000000081111561098957600080fd5b82018360208201111561099b57600080fd5b803590602001918460018302840111640100000000831117156109bd57600080fd5b91908080601f016020809104026020016040519081016040528093929190818152602001838380828437600081840152601f19601f82011690508083019250505050505050919291929080359060200190640100000000811115610a2057600080fd5b820183602082011115610a3257600080fd5b80359060200191846001830284011164010000000083111715610a5457600080fd5b91908080601f016020809104026020016040519081016040528093929190818152602001838380828437600081840152601f19601f82011690508083019250505050505050919291929080359060200190640100000000811115610ab757600080fd5b820183602082011115610ac957600080fd5b80359060200191846001830284011164010000000083111715610aeb57600080fd5b91908080601f016020809104026020016040519081016040528093929190818152602001838380828437600081840152601f19601f82011690508083019250505050505050919291929080359060200190640100000000811115610b4e57600080fd5b820183602082011115610b6057600080fd5b80359060200191846001830284011164010000000083111715610b8257600080fd5b91908080601f016020809104026020016040519081016040528093929190818152602001838380828437600081840152601f19601f82011690508083019250505050505050919291929050505061195f565b005b348015610be257600080fd5b50610c0f60048036036020811015610bf957600080fd5b8101908080359060200190929190505050611d8f565b005b348015610c1d57600080fd5b50610c26611fec565b005b610c5460048036036020811015610c3e57600080fd5b8101908080359060200190929190505050611ff7565b005b348015610c6257600080fd5b50610c8f60048036036020811015610c7957600080fd5b81019080803590602001909291905050506123b0565b005b348015610c9d57600080fd5b50610cca60048036036020811015610cb457600080fd5b8101908080359060200190929190505050612564565b005b610cd533611676565b610cde57600080fd5b610ce781612834565b50565b610cf333611942565b610cfc57600080fd5b8160026007811115610d0a57fe5b60076000838152602001908152602001600020600b0160009054906101000a900460ff166007811115610d3957fe5b14610dac576040517f08c379a00000000000000000000000000000000000000000000000000000000081526004018080602001828103825260128152602001807f4974656d206973206e6f74205061636b6564000000000000000000000000000081525060200191505060405180910390fd5b600360076000858152602001908152602001600020600b0160006101000a81548160ff02191690836007811115610ddf57fe5b02179055508160076000858152602001908152602001600020600a01819055506008600084815260200190815260200160002080600181540180825580915050600190039060005260206000200160006040518060400160405280600781526020017f466f7253616c650000000000000000000000000000000000000000000000000081525090919091509080519060200190610e7d929190612c41565b507fa96ae0fc3224ebd79eebfe54bd130cc9cb94416cddd1f2386115e00b725324686005546040518082815260200191505060405180910390a1505050565b610ec533611942565b610ece57600080fd5b8060006007811115610edc57fe5b60076000838152602001908152602001600020600b0160009054906101000a900460ff166007811115610f0b57fe5b14610f7e576040517f08c379a00000000000000000000000000000000000000000000000000000000081526004018080602001828103825260158152602001807f4974656d206973206e6f7420486172766573746564000000000000000000000081525060200191505060405180910390fd5b600160076000848152602001908152602001600020600b0160006101000a81548160ff02191690836007811115610fb157fe5b02179055506008600083815260200190815260200160002080600181540180825580915050600190039060005260206000200160006040518060400160405280600981526020017f50726f636573736564000000000000000000000000000000000000000000000081525090919091509080519060200190611034929190612c41565b507f5afe3b1bf87069693c075da5c22a98d63d1aef98a30dbbe538d0781a98b77ee5826040518082815260200191505060405180910390a15050565b600061108682600361288e90919063ffffffff16565b9050919050565b61109633612920565b565b6110a13361297a565b565b600080600060606000806000806000600760008b8152602001908152602001600020600001549850600760008b8152602001908152602001600020600101549750600760008b8152602001908152602001600020600801549650600760008b81526020019081526020016000206009018054600181600116156101000203166002900480601f0160208091040260200160405190810160405280929190818152602001828054600181600116156101000203166002900480156111a75780601f1061117c576101008083540402835291602001916111a7565b820191906000526020600020905b81548152906001019060200180831161118a57829003601f168201915b50505050509550600760008b8152602001908152602001600020600a01549450600760008b8152602001908152602001600020600b0160009054906101000a900460ff1660078111156111f657fe5b9350600760008b8152602001908152602001600020600b0160019054906101000a900473ffffffffffffffffffffffffffffffffffffffff169250600760008b8152602001908152602001600020600c0160009054906101000a900473ffffffffffffffffffffffffffffffffffffffff169150600760008b8152602001908152602001600020600d0160009054906101000a900473ffffffffffffffffffffffffffffffffffffffff1690509193959799909294969850565b6112b9336116bc565b6112c257600080fd5b6112cb816129d4565b50565b600080600080606080606080600760008a8152602001908152602001600020600001549750600760008a8152602001908152602001600020600101549650600760008a815260200190815260200160002060020160009054906101000a900473ffffffffffffffffffffffffffffffffffffffff169550600760008a815260200190815260200160002060030160009054906101000a900473ffffffffffffffffffffffffffffffffffffffff169450600760008a81526020019081526020016000206004018054600181600116156101000203166002900480601f0160208091040260200160405190810160405280929190818152602001828054600181600116156101000203166002900480156114285780601f106113fd57610100808354040283529160200191611428565b820191906000526020600020905b81548152906001019060200180831161140b57829003601f168201915b50505050509350600760008a81526020019081526020016000206005018054600181600116156101000203166002900480601f0160208091040260200160405190810160405280929190818152602001828054600181600116156101000203166002900480156114d95780601f106114ae576101008083540402835291602001916114d9565b820191906000526020600020905b8154815290600101906020018083116114bc57829003601f168201915b50505050509250600760008a81526020019081526020016000206006018054600181600116156101000203166002900480601f01602080910402602001604051908101604052809291908181526020018280546001816001161561010002031660029004801561158a5780601f1061155f5761010080835404028352916020019161158a565b820191906000526020600020905b81548152906001019060200180831161156d57829003601f168201915b50505050509150600760008a81526020019081526020016000206007018054600181600116156101000203166002900480601f01602080910402602001604051908101604052809291908181526020018280546001816001161561010002031660029004801561163b5780601f106116105761010080835404028352916020019161163b565b820191906000526020600020905b81548152906001019060200180831161161e57829003601f168201915b50505050509050919395975091939597565b61165633611942565b61165f57600080fd5b61166881612a2e565b50565b61167433612a88565b565b600061168c82600261288e90919063ffffffff16565b9050919050565b6116a733600361288e90919063ffffffff16565b6116b057600080fd5b6116b981612ae2565b50565b60006116d282600161288e90919063ffffffff16565b9050919050565b6116ed33600361288e90919063ffffffff16565b6116f657600080fd5b806005600781111561170457fe5b60076000838152602001908152602001600020600b0160009054906101000a900460ff16600781111561173357fe5b146117a6576040517f08c379a00000000000000000000000000000000000000000000000000000000081526004018080602001828103825260138152602001807f4974656d206973206e6f7420536869707065640000000000000000000000000081525060200191505060405180910390fd5b336007600084815260200190815260200160002060020160006101000a81548173ffffffffffffffffffffffffffffffffffffffff021916908373ffffffffffffffffffffffffffffffffffffffff1602179055503360076000848152602001908152602001600020600c0160006101000a81548173ffffffffffffffffffffffffffffffffffffffff021916908373ffffffffffffffffffffffffffffffffffffffff160217905550600660076000848152602001908152602001600020600b0160006101000a81548160ff0219169083600781111561188357fe5b02179055506008600083815260200190815260200160002080600181540180825580915050600190039060005260206000200160006040518060400160405280600881526020017f526563656976656400000000000000000000000000000000000000000000000081525090919091509080519060200190611906929190612c41565b507fa8142743f8f70a4c26f3691cf4ed59718381fb2f18070ec52be1f1022d855557826040518082815260200191505060405180910390a15050565b600061195882600061288e90919063ffffffff16565b9050919050565b61196833611942565b61197157600080fd5b611979612cc1565b6006548160000181815250508781602001818152505086816040019073ffffffffffffffffffffffffffffffffffffffff16908173ffffffffffffffffffffffffffffffffffffffff168152505086816060019073ffffffffffffffffffffffffffffffffffffffff16908173ffffffffffffffffffffffffffffffffffffffff1681525050858160800181905250848160a00181905250838160c00181905250828160e001819052508760065401816101000181815250508181610120018190525060008161016001906007811115611a4f57fe5b90816007811115611a5c57fe5b8152505080600760008a8152602001908152602001600020600082015181600001556020820151816001015560408201518160020160006101000a81548173ffffffffffffffffffffffffffffffffffffffff021916908373ffffffffffffffffffffffffffffffffffffffff16021790555060608201518160030160006101000a81548173ffffffffffffffffffffffffffffffffffffffff021916908373ffffffffffffffffffffffffffffffffffffffff1602179055506080820151816004019080519060200190611b32929190612c41565b5060a0820151816005019080519060200190611b4f929190612c41565b5060c0820151816006019080519060200190611b6c929190612c41565b5060e0820151816007019080519060200190611b89929190612c41565b506101008201518160080155610120820151816009019080519060200190611bb2929190612c41565b5061014082015181600a015561016082015181600b0160006101000a81548160ff02191690836007811115611be357fe5b021790555061018082015181600b0160016101000a81548173ffffffffffffffffffffffffffffffffffffffff021916908373ffffffffffffffffffffffffffffffffffffffff1602179055506101a082015181600c0160006101000a81548173ffffffffffffffffffffffffffffffffffffffff021916908373ffffffffffffffffffffffffffffffffffffffff1602179055506101c082015181600d0160006101000a81548173ffffffffffffffffffffffffffffffffffffffff021916908373ffffffffffffffffffffffffffffffffffffffff1602179055509050506008600089815260200190815260200160002080600181540180825580915050600190039060005260206000200160006040518060400160405280600981526020017f486172766573746564000000000000000000000000000000000000000000000081525090919091509080519060200190611d41929190612c41565b506001600654016006819055507f8e55ccfc9778ff8eba1646d765cf1982537ce0f9257054a17b48aad745250183886040518082815260200191505060405180910390a15050505050505050565b611d9833611676565b611da157600080fd5b8060066007811115611daf57fe5b60076000838152602001908152602001600020600b0160009054906101000a900460ff166007811115611dde57fe5b14611e51576040517f08c379a00000000000000000000000000000000000000000000000000000000081526004018080602001828103825260148152602001807f4974656d206973206e6f7420526563656976656400000000000000000000000081525060200191505060405180910390fd5b336007600084815260200190815260200160002060020160006101000a81548173ffffffffffffffffffffffffffffffffffffffff021916908373ffffffffffffffffffffffffffffffffffffffff1602179055503360076000848152602001908152602001600020600d0160006101000a81548173ffffffffffffffffffffffffffffffffffffffff021916908373ffffffffffffffffffffffffffffffffffffffff1602179055506007806000848152602001908152602001600020600b0160006101000a81548160ff02191690836007811115611f2d57fe5b02179055506008600083815260200190815260200160002080600181540180825580915050600190039060005260206000200160006040518060400160405280600981526020017f507572636861736564000000000000000000000000000000000000000000000081525090919091509080519060200190611fb0929190612c41565b507f653d56639fee6b566a5c804764e9689de38645f0b733df89a36a1b7b42173dd8826040518082815260200191505060405180910390a15050565b611ff533612b3c565b565b612000336116bc565b61200957600080fd5b806003600781111561201757fe5b60076000838152602001908152602001600020600b0160009054906101000a900460ff16600781111561204657fe5b146120b9576040517f08c379a00000000000000000000000000000000000000000000000000000000081526004018080602001828103825260138152602001807f4974656d206973206e6f7420466f7253616c650000000000000000000000000081525060200191505060405180910390fd5b60076000838152602001908152602001600020600a0154803410156120dd57600080fd5b82336007600086815260200190815260200160002060020160006101000a81548173ffffffffffffffffffffffffffffffffffffffff021916908373ffffffffffffffffffffffffffffffffffffffff1602179055503360076000868152602001908152602001600020600b0160016101000a81548173ffffffffffffffffffffffffffffffffffffffff021916908373ffffffffffffffffffffffffffffffffffffffff160217905550600460076000868152602001908152602001600020600b0160006101000a81548160ff021916908360078111156121bb57fe5b02179055506007600085815260200190815260200160002060030160009054906101000a900473ffffffffffffffffffffffffffffffffffffffff1673ffffffffffffffffffffffffffffffffffffffff166108fc60076000878152602001908152602001600020600a01549081150290604051600060405180830381858888f19350505050158015612252573d6000803e3d6000fd5b506008600085815260200190815260200160002080600181540180825580915050600190039060005260206000200160006040518060400160405280600481526020017f536f6c6400000000000000000000000000000000000000000000000000000000815250909190915090805190602001906122d1929190612c41565b507f92f64ca637d023f354075a4be751b169c1a8a9ccb6d33cdd0cb3520543995727846040518082815260200191505060405180910390a1600060076000838152602001908152602001600020600a015490506000813403905060076000848152602001908152602001600020600d0160009054906101000a900473ffffffffffffffffffffffffffffffffffffffff1673ffffffffffffffffffffffffffffffffffffffff166108fc829081150290604051600060405180830381858888f193505050501580156123a7573d6000803e3d6000fd5b50505050505050565b6123b933611942565b6123c257600080fd5b80600160078111156123d057fe5b60076000838152602001908152602001600020600b0160009054906101000a900460ff1660078111156123ff57fe5b14612472576040517f08c379a00000000000000000000000000000000000000000000000000000000081526004018080602001828103825260158152602001807f4974656d206973206e6f742050726f636573736564000000000000000000000081525060200191505060405180910390fd5b600260076000848152602001908152602001600020600b0160006101000a81548160ff021916908360078111156124a557fe5b02179055506008600083815260200190815260200160002080600181540180825580915050600190039060005260206000200160006040518060400160405280600681526020017f5061636b6564000000000000000000000000000000000000000000000000000081525090919091509080519060200190612528929190612c41565b507f9b3b66e2380b690bae22c73ef1428fb0c91e72fe14a4b6defa13035214187aff826040518082815260200191505060405180910390a15050565b61256d336116bc565b61257657600080fd5b806004600781111561258457fe5b60076000838152602001908152602001600020600b0160009054906101000a900460ff1660078111156125b357fe5b14612626576040517f08c379a00000000000000000000000000000000000000000000000000000000081526004018080602001828103825260108152602001807f4974656d206973206e6f7420536f6c640000000000000000000000000000000081525060200191505060405180910390fd5b6007600083815260200190815260200160002060020160009054906101000a900473ffffffffffffffffffffffffffffffffffffffff168073ffffffffffffffffffffffffffffffffffffffff163373ffffffffffffffffffffffffffffffffffffffff161461269557600080fd5b600560076000858152602001908152602001600020600b0160006101000a81548160ff021916908360078111156126c857fe5b02179055506008600084815260200190815260200160002080600181540180825580915050600190039060005260206000200160006040518060400160405280600781526020017f53686970706564000000000000000000000000000000000000000000000000008152509091909150908051906020019061274b929190612c41565b507ff00b9a5725b80c54016f42114f6ed7792d22eecb116011c4afac29c57bef6c95836040518082815260200191505060405180910390a1505050565b600073ffffffffffffffffffffffffffffffffffffffff168173ffffffffffffffffffffffffffffffffffffffff1614156127c257600080fd5b6127cc828261288e565b156127d657600080fd5b60018260000160008373ffffffffffffffffffffffffffffffffffffffff1673ffffffffffffffffffffffffffffffffffffffff16815260200190815260200160002060006101000a81548160ff0219169083151502179055505050565b61284881600261278890919063ffffffff16565b8073ffffffffffffffffffffffffffffffffffffffff167f28b26e7a3d20aedbc5f8f2ebf7da671c0491723a2b78f47a097b0e46dee0714260405160405180910390a250565b60008073ffffffffffffffffffffffffffffffffffffffff168273ffffffffffffffffffffffffffffffffffffffff1614156128c957600080fd5b8260000160008373ffffffffffffffffffffffffffffffffffffffff1673ffffffffffffffffffffffffffffffffffffffff16815260200190815260200160002060009054906101000a900460ff16905092915050565b612934816002612b9690919063ffffffff16565b8073ffffffffffffffffffffffffffffffffffffffff167fe3f5ed5f263f1f01764a96edfc7d025f511ec5f7d180e8816908b78bcf74f09860405160405180910390a250565b61298e816001612b9690919063ffffffff16565b8073ffffffffffffffffffffffffffffffffffffffff167f126174f6cf49c81cdb4a9214c6b8f037bef55b4ec31e4fc776cea2a1c8a88d5960405160405180910390a250565b6129e881600161278890919063ffffffff16565b8073ffffffffffffffffffffffffffffffffffffffff167fddbf200aa634dc3fb81cfd68583dd1040d1c751d335e1d86b631bde3e977fea860405160405180910390a250565b612a4281600061278890919063ffffffff16565b8073ffffffffffffffffffffffffffffffffffffffff167f2e0ded4123377a3c2bc9a26f1717655a129e2f20752924d42e730ec89c83dbd060405160405180910390a250565b612a9c816000612b9690919063ffffffff16565b8073ffffffffffffffffffffffffffffffffffffffff167fa5e0f060af304ab17dd418c7927e3da3ae7868189bf387aee09ab179ccc572f260405160405180910390a250565b612af681600361278890919063ffffffff16565b8073ffffffffffffffffffffffffffffffffffffffff167f71ae26cad02663e3d92efd6ec56031a80d74a20c0ab4183faa8bf262261c9baa60405160405180910390a250565b612b50816003612b9690919063ffffffff16565b8073ffffffffffffffffffffffffffffffffffffffff167fdb7176e79cffef81cb01767dd0447a0b24bb72ca9778d4b245581086b2a7e6db60405160405180910390a250565b600073ffffffffffffffffffffffffffffffffffffffff168173ffffffffffffffffffffffffffffffffffffffff161415612bd057600080fd5b612bda828261288e565b612be357600080fd5b60008260000160008373ffffffffffffffffffffffffffffffffffffffff1673ffffffffffffffffffffffffffffffffffffffff16815260200190815260200160002060006101000a81548160ff0219169083151502179055505050565b828054600181600116156101000203166002900490600052602060002090601f016020900481019282601f10612c8257805160ff1916838001178555612cb0565b82800160010185558215612cb0579182015b82811115612caf578251825591602001919060010190612c94565b5b509050612cbd9190612db0565b5090565b604051806101e001604052806000815260200160008152602001600073ffffffffffffffffffffffffffffffffffffffff168152602001600073ffffffffffffffffffffffffffffffffffffffff1681526020016060815260200160608152602001606081526020016060815260200160008152602001606081526020016000815260200160006007811115612d5357fe5b8152602001600073ffffffffffffffffffffffffffffffffffffffff168152602001600073ffffffffffffffffffffffffffffffffffffffff168152602001600073ffffffffffffffffffffffffffffffffffffffff1681525090565b5b80821115612dc9576000816000905550600101612db1565b509056fea264697066735822122026080bbadccf837096890bd82c128c47c278576feea75dc43a6690f657e01c2264736f6c634300060c0033",
  "immutableReferences": {},
  "source": "pragma solidity ^0.6.12;\n\nimport \"../coffeeaccesscontrol/FarmerRole.sol\";\nimport \"../coffeeaccesscontrol/DistributorRole.sol\";\nimport \"../coffeeaccesscontrol/ConsumerRole.sol\";\nimport \"../coffeeaccesscontrol/RetailerRole.sol\";\n\n// Define a contract 'Supplychain'\ncontract SupplyChain is\n    FarmerRole,\n    DistributorRole,\n    ConsumerRole,\n    RetailerRole\n{\n    // Define 'owner'\n    address owner;\n\n    // Define a variable called 'upc' for Universal Product Code (UPC)\n    uint upc;\n\n    // Define a variable called 'sku' for Stock Keeping Unit (SKU)\n    uint sku;\n\n    // Define a public mapping 'items' that maps the UPC to an Item.\n    mapping(uint => Item) items;\n\n    // Define a public mapping 'itemsHistory' that maps the UPC to an array of TxHash,\n    // that track its journey through the supply chain -- to be sent from DApp.\n    mapping(uint => string[]) itemsHistory;\n\n    // Define enum 'State' with the following values:\n    enum State {\n        Harvested, // 0\n        Processed, // 1\n        Packed, // 2\n        ForSale, // 3\n        Sold, // 4\n        Shipped, // 5\n        Received, // 6\n        Purchased // 7\n    }\n\n    State constant defaultState = State.Harvested;\n\n    // Define a struct 'Item' with the following fields:\n    struct Item {\n        uint sku; // Stock Keeping Unit (SKU)\n        uint upc; // Universal Product Code (UPC), generated by the Farmer, goes on the package, can be verified by the Consumer\n        address payable ownerID; // Metamask-Ethereum address of the current owner as the product moves through 8 stages\n        address payable originFarmerID; // Metamask-Ethereum address of the Farmer\n        string originFarmName; // Farmer Name\n        string originFarmInformation; // Farmer Information\n        string originFarmLatitude; // Farm Latitude\n        string originFarmLongitude; // Farm Longitude\n        uint productID; // Product ID potentially a combination of upc + sku\n        string productNotes; // Product Notes\n        uint productPrice; // Product Price\n        State itemState; // Product State as represented in the enum above\n        address payable distributorID; // Metamask-Ethereum address of the Distributor\n        address payable retailerID; // Metamask-Ethereum address of the Retailer\n        address payable consumerID; // Metamask-Ethereum address of the Consumer\n    }\n\n    // Define 8 events with the same 8 state values and accept 'upc' as input argument\n    event Harvested(uint upc);\n    event Processed(uint upc);\n    event Packed(uint upc);\n    event ForSale(uint upc);\n    event Sold(uint upc);\n    event Shipped(uint upc);\n    event Received(uint upc);\n    event Purchased(uint upc);\n\n    // Define a modifer that checks to see if msg.sender == owner of the contract\n    modifier onlyOwner() {\n        require(msg.sender == owner);\n        _;\n    }\n\n    // Define a modifer that verifies the Caller\n    modifier verifyCaller(address _address) {\n        require(msg.sender == _address);\n        _;\n    }\n\n    // Define a modifier that checks if the paid amount is sufficient to cover the price\n    modifier paidEnough(uint _price) {\n        require(msg.value >= _price);\n        _;\n    }\n\n    // Define a modifier that checks the price and refunds the remaining balance\n    modifier checkValue(uint _upc) {\n        _;\n        uint _price = items[_upc].productPrice;\n        uint amountToReturn = msg.value - _price;\n        items[_upc].consumerID.transfer(amountToReturn);\n    }\n\n    // Define a modifier that checks if an item.state of a upc is Harvested\n    modifier harvested(uint _upc) {\n        require(\n            items[_upc].itemState == State.Harvested,\n            \"Item is not Harvested\"\n        );\n        _;\n    }\n\n    // Define a modifier that checks if an item.state of a upc is Processed\n    modifier processed(uint _upc) {\n        require(\n            items[_upc].itemState == State.Processed,\n            \"Item is not Processed\"\n        );\n        _;\n    }\n\n    // Define a modifier that checks if an item.state of a upc is Packed\n    modifier packed(uint _upc) {\n        require(items[_upc].itemState == State.Packed, \"Item is not Packed\");\n        _;\n    }\n\n    // Define a modifier that checks if an item.state of a upc is ForSale\n    modifier forSale(uint _upc) {\n        require(items[_upc].itemState == State.ForSale, \"Item is not ForSale\");\n        _;\n    }\n\n    // Define a modifier that checks if an item.state of a upc is Sold\n    modifier sold(uint _upc) {\n        require(items[_upc].itemState == State.Sold, \"Item is not Sold\");\n        _;\n    }\n\n    // Define a modifier that checks if an item.state of a upc is Shipped\n    modifier shipped(uint _upc) {\n        require(items[_upc].itemState == State.Shipped, \"Item is not Shipped\");\n        _;\n    }\n\n    // Define a modifier that checks if an item.state of a upc is Received\n    modifier received(uint _upc) {\n        require(\n            items[_upc].itemState == State.Received,\n            \"Item is not Received\"\n        );\n        _;\n    }\n\n    // Define a modifier that checks if an item.state of a upc is Purchased\n    modifier purchased(uint _upc) {\n        require(\n            items[_upc].itemState == State.Purchased,\n            \"Item is not Purchased\"\n        );\n        _;\n    }\n\n    // In the constructor set 'owner' to the address that instantiated the contract\n    // and set 'sku' to 1\n    // and set 'upc' to 1\n    constructor() public payable {\n        owner = msg.sender;\n        sku = 1;\n        upc = 1;\n    }\n\n    // // Define a function 'kill' if required\n    // COMMENT: as per latest documentation we should not use selfdestruct so removing it\n    // function kill() public {\n    //     if (msg.sender == owner) {\n    //         selfdestruct(owner);\n    //     }\n    // }\n\n    // Define a function 'harvestItem' that allows a farmer to mark an item 'Harvested'\n    function harvestItem(\n        uint _upc,\n        address payable _originFarmerID,\n        string memory _originFarmName,\n        string memory _originFarmInformation,\n        string memory _originFarmLatitude,\n        string memory _originFarmLongitude,\n        string memory _productNotes\n    ) public onlyFarmer {\n        // Add the new item as part of Harvest\n        Item memory item;\n        item.sku = sku;\n        item.upc = _upc;\n        item.ownerID = _originFarmerID;\n        item.originFarmerID = _originFarmerID;\n        item.originFarmName = _originFarmName;\n        item.originFarmInformation = _originFarmInformation;\n        item.originFarmLatitude = _originFarmLatitude;\n        item.originFarmLongitude = _originFarmLongitude;\n        item.productID = sku + _upc;\n        item.productNotes = _productNotes;\n        item.itemState = State.Harvested;\n        items[_upc] = item;\n        itemsHistory[_upc].push(\"Harvested\");\n\n        // Increment sku\n        sku = sku + 1;\n        // Emit the appropriate event\n        emit Harvested(_upc);\n    }\n\n    // Define a function 'processtItem' that allows a farmer to mark an item 'Processed'\n    function processItem(uint _upc) public onlyFarmer harvested(_upc) {\n        // Call modifier to check if upc has passed previous supply chain stage\n        // Call modifier to verify caller of this function\n        // Update the appropriate fields\n        // Emit the appropriate event\n        items[_upc].itemState = State.Processed;\n        itemsHistory[_upc].push(\"Processed\");\n\n        emit Processed(_upc);\n    }\n\n    // Define a function 'packItem' that allows a farmer to mark an item 'Packed'\n    function packItem(uint _upc) public onlyFarmer processed(_upc) {\n        // Call modifier to check if upc has passed previous supply chain stage\n\n        // Call modifier to verify caller of this function\n        // Update the appropriate fields\n        // Emit the appropriate event\n        items[_upc].itemState = State.Packed;\n        itemsHistory[_upc].push(\"Packed\");\n        emit Packed(_upc);\n    }\n\n    // Define a function 'sellItem' that allows a farmer to mark an item 'ForSale'\n    function sellItem(uint _upc, uint _price) public onlyFarmer packed(_upc) {\n        // Call modifier to check if upc has passed previous supply chain stage\n\n        // Call modifier to verify caller of this function\n        // Update the appropriate fields\n        // Emit the appropriate event\n        items[_upc].itemState = State.ForSale;\n        items[_upc].productPrice = _price;\n        itemsHistory[_upc].push(\"ForSale\");\n        emit ForSale(upc);\n    }\n\n    // Define a function 'buyItem' that allows the disributor to mark an item 'Sold'\n    // Use the above defined modifiers to check if the item is available for sale, if the buyer has paid enough,\n    // and any excess ether sent is refunded back to the buyer\n    function buyItem(\n        uint _upc\n    )\n        public\n        payable\n        onlyDistributor\n        forSale(_upc)\n        paidEnough(items[_upc].productPrice)\n        checkValue(_upc)\n    {\n        // Update the appropriate fields - ownerID, distributorID, itemState\n        items[_upc].ownerID = payable(msg.sender);\n        items[_upc].distributorID = payable(msg.sender);\n        items[_upc].itemState = State.Sold;\n        // Transfer money to farmer\n        items[_upc].originFarmerID.transfer(items[_upc].productPrice);\n        itemsHistory[_upc].push(\"Sold\");\n        emit Sold(_upc);\n    }\n\n    // Define a function 'shipItem' that allows the distributor to mark an item 'Shipped'\n    // Use the above modifers to check if the item is sold\n    function shipItem(\n        uint _upc\n    ) public onlyDistributor sold(_upc) verifyCaller(items[_upc].ownerID) {\n        // Call modifier to check if upc has passed previous supply chain stage\n        // Call modifier to verify caller of this function\n        // Update the appropriate fields\n        items[_upc].itemState = State.Shipped;\n        itemsHistory[_upc].push(\"Shipped\");\n        // Emit the appropriate event\n        emit Shipped(_upc);\n    }\n\n    // Define a function 'receiveItem' that allows the retailer to mark an item 'Received'\n    // Use the above modifiers to check if the item is shipped\n    function receiveItem(uint _upc) public onlyRetailer shipped(_upc) {\n        // Call modifier to check if upc has passed previous supply chain stage\n        // Access Control List enforced by calling Smart Contract / DApp\n        // Update the appropriate fields - ownerID, retailerID, itemState\n        items[_upc].ownerID = payable(msg.sender);\n        items[_upc].retailerID = payable(msg.sender);\n        items[_upc].itemState = State.Received;\n        itemsHistory[_upc].push(\"Received\");\n        // Emit the appropriate event\n        emit Received(_upc);\n    }\n\n    // Define a function 'purchaseItem' that allows the consumer to mark an item 'Purchased'\n    // Use the above modifiers to check if the item is received\n    function purchaseItem(uint _upc) public onlyConsumer received(_upc) {\n        // Call modifier to check if upc has passed previous supply chain stage\n        // Access Control List enforced by calling Smart Contract / DApp\n        // Update the appropriate fields - ownerID, consumerID, itemState\n        items[_upc].ownerID = payable(msg.sender);\n        items[_upc].consumerID = payable(msg.sender);\n        items[_upc].itemState = State.Purchased;\n        itemsHistory[_upc].push(\"Purchased\");\n        // Emit the appropriate event\n        emit Purchased(_upc);\n    }\n\n    // Define a function 'fetchItemBufferOne' that fetches the data\n    function fetchItemBufferOne(\n        uint _upc\n    )\n        public\n        view\n        returns (\n            uint itemSKU,\n            uint itemUPC,\n            address payable ownerID,\n            address payable originFarmerID,\n            string memory originFarmName,\n            string memory originFarmInformation,\n            string memory originFarmLatitude,\n            string memory originFarmLongitude\n        )\n    {\n        // Assign values to the 8 parameters\n        itemSKU = items[_upc].sku;\n        itemUPC = items[_upc].upc;\n        ownerID = items[_upc].ownerID;\n        originFarmerID = items[_upc].originFarmerID;\n        originFarmName = items[_upc].originFarmName;\n        originFarmInformation = items[_upc].originFarmInformation;\n        originFarmLatitude = items[_upc].originFarmLatitude;\n        originFarmLongitude = items[_upc].originFarmLongitude;\n        return (\n            itemSKU,\n            itemUPC,\n            ownerID,\n            originFarmerID,\n            originFarmName,\n            originFarmInformation,\n            originFarmLatitude,\n            originFarmLongitude\n        );\n    }\n\n    // Define a function 'fetchItemBufferTwo' that fetches the data\n    function fetchItemBufferTwo(\n        uint _upc\n    )\n        public\n        view\n        returns (\n            uint itemSKU,\n            uint itemUPC,\n            uint productID,\n            string memory productNotes,\n            uint productPrice,\n            uint itemState,\n            address payable distributorID,\n            address payable retailerID,\n            address payable consumerID\n        )\n    {\n        // Assign values to the 9 parameters\n        itemSKU = items[_upc].sku;\n        itemUPC = items[_upc].upc;\n        productID = items[_upc].productID;\n        productNotes = items[_upc].productNotes;\n        productPrice = items[_upc].productPrice;\n        itemState = uint256(items[_upc].itemState);\n        distributorID = items[_upc].distributorID;\n        retailerID = items[_upc].retailerID;\n        consumerID = items[_upc].consumerID;\n        return (\n            itemSKU,\n            itemUPC,\n            productID,\n            productNotes,\n            productPrice,\n            itemState,\n            distributorID,\n            retailerID,\n            consumerID\n        );\n    }\n}\n",
  "sourcePath": "/home/harsheet/Desktop/personal/truffle-projects/nd1309-Project-6b-Example-Template/project-6/contracts/coffeebase/SupplyChain.sol",
  "compiler": {
    "name": "solc",
    "version": "0.6.12+commit.27d51765.Emscripten.clang"
  },
  "schemaVersion": "3.4.16",
  "updatedAt": "2023-12-25T10:41:11.666Z",
  "networkType": "ethereum",
  "devdoc": {
    "kind": "dev",
    "methods": {},
    "version": 1
  },
  "userdoc": {
    "kind": "user",
    "methods": {},
    "version": 1
  }
}